{
  "contractName": "Deal",
  "abi": [
    {
      "constant": true,
      "inputs": [
        {
          "internalType": "uint256",
          "name": "",
          "type": "uint256"
        }
      ],
      "name": "buyers",
      "outputs": [
        {
          "internalType": "address",
          "name": "",
          "type": "address"
        }
      ],
      "payable": false,
      "stateMutability": "view",
      "type": "function"
    },
    {
      "constant": false,
      "inputs": [
        {
          "internalType": "uint256",
          "name": "carId",
          "type": "uint256"
        }
      ],
      "name": "buy",
      "outputs": [
        {
          "internalType": "uint256",
          "name": "",
          "type": "uint256"
        }
      ],
      "payable": true,
      "stateMutability": "payable",
      "type": "function"
    },
    {
      "constant": true,
      "inputs": [],
      "name": "getBuyers",
      "outputs": [
        {
          "internalType": "address[16]",
          "name": "",
          "type": "address[16]"
        }
      ],
      "payable": false,
      "stateMutability": "view",
      "type": "function"
    },
    {
      "constant": false,
      "inputs": [],
      "name": "pay",
      "outputs": [],
      "payable": true,
      "stateMutability": "payable",
      "type": "function"
    }
  ],
  "bytecode": "0x608060405234801561001057600080fd5b506102dd806100206000396000f3fe60806040526004361061003f5760003560e01c80631b9265b814610044578063d96a094a1461004e578063f2aa821814610090578063f64bfaba1461010b575b600080fd5b61004c61015e565b005b61007a6004803603602081101561006457600080fd5b8101908080359060200190929190505050610160565b6040518082815260200191505060405180910390f35b34801561009c57600080fd5b506100c9600480360360208110156100b357600080fd5b81019080803590602001909291905050506101d1565b604051808273ffffffffffffffffffffffffffffffffffffffff1673ffffffffffffffffffffffffffffffffffffffff16815260200191505060405180910390f35b34801561011757600080fd5b50610120610204565b6040518082601060200280838360005b8381101561014b578082015181840152602081019050610130565b5050505090500191505060405180910390f35b565b60008082101580156101735750600f8211155b61017c57600080fd5b336000836010811061018a57fe5b0160006101000a81548173ffffffffffffffffffffffffffffffffffffffff021916908373ffffffffffffffffffffffffffffffffffffffff160217905550819050919050565b600081601081106101de57fe5b016000915054906101000a900473ffffffffffffffffffffffffffffffffffffffff1681565b61020c610285565b600060108060200260405190810160405280929190826010801561027b576020028201915b8160009054906101000a900473ffffffffffffffffffffffffffffffffffffffff1673ffffffffffffffffffffffffffffffffffffffff1681526020019060010190808311610231575b5050505050905090565b60405180610200016040528060109060208202803883398082019150509050509056fea265627a7a72315820447939f95e4bb039f15d7435f139842dcadb3c21c01caee82948f333052d19ec64736f6c634300050c0032",
  "source": "pragma solidity ^0.5.0;\n\ncontract Deal {\n    address[16] public buyers;\n\n\n// Buying a car\nfunction buy(uint carId) public payable returns (uint) {\n  require(carId >= 0 && carId <= 15);\n  buyers[carId] = msg.sender;  \n  return carId;\n}\n\n// Retrieving the buyers\nfunction getBuyers() public view returns (address[16] memory) {\n  return buyers;\n}\n\nfunction pay() public payable {\n}\n\n}",
  "sourcePath": "/media/monsterking/OTHERS/CSE/MSc/DU MIT/blockchain/blockchain_demo/contracts/Deal.sol",
  "compiler": {
    "name": "solc",
    "version": "0.5.12+commit.7709ece9.Emscripten.clang"
  },
  "schemaVersion": "3.0.19",
  "updatedAt": "2019-12-24T05:45:45.882Z",
  "networkType": "ethereum",
  "devdoc": {
    "methods": {}
  },
  "userdoc": {
    "methods": {}
  }
}